{"abi":[{"type":"constructor","inputs":[],"stateMutability":"nonpayable"},{"type":"function","name":"addIssuer","inputs":[{"name":"_university","type":"address","internalType":"address"}],"outputs":[],"stateMutability":"nonpayable"},{"type":"function","name":"admin","inputs":[],"outputs":[{"name":"","type":"address","internalType":"address"}],"stateMutability":"view"},{"type":"function","name":"checkIssuer","inputs":[{"name":"_university","type":"address","internalType":"address"}],"outputs":[{"name":"","type":"bool","internalType":"bool"}],"stateMutability":"view"},{"type":"function","name":"checkRevocation","inputs":[{"name":"_issuer","type":"address","internalType":"address"},{"name":"_merkleRoot","type":"bytes32","internalType":"bytes32"}],"outputs":[{"name":"","type":"bool","internalType":"bool"}],"stateMutability":"view"},{"type":"function","name":"isAuthorizedIssuer","inputs":[{"name":"","type":"address","internalType":"address"}],"outputs":[{"name":"","type":"bool","internalType":"bool"}],"stateMutability":"view"},{"type":"function","name":"isRevoked","inputs":[{"name":"","type":"address","internalType":"address"},{"name":"","type":"bytes32","internalType":"bytes32"}],"outputs":[{"name":"","type":"bool","internalType":"bool"}],"stateMutability":"view"},{"type":"function","name":"removeIssuer","inputs":[{"name":"_university","type":"address","internalType":"address"}],"outputs":[],"stateMutability":"nonpayable"},{"type":"function","name":"revokeCredential","inputs":[{"name":"_merkleRoot","type":"bytes32","internalType":"bytes32"}],"outputs":[],"stateMutability":"nonpayable"},{"type":"event","name":"CredentialRevoked","inputs":[{"name":"issuer","type":"address","indexed":true,"internalType":"address"},{"name":"merkleRoot","type":"bytes32","indexed":true,"internalType":"bytes32"}],"anonymous":false},{"type":"event","name":"IssuerAdded","inputs":[{"name":"university","type":"address","indexed":true,"internalType":"address"}],"anonymous":false},{"type":"event","name":"IssuerRemoved","inputs":[{"name":"university","type":"address","indexed":true,"internalType":"address"}],"anonymous":false},{"type":"error","name":"NotAdmin","inputs":[]},{"type":"error","name":"NotAuthorizedIssuer","inputs":[]}],"bytecode":{"object":"0x60a0604052348015600e575f5ffd5b503373ffffffffffffffffffffffffffffffffffffffff1660808173ffffffffffffffffffffffffffffffffffffffff16815250506080516107f56100695f395f81816101be01528181610323015261061d01526107f55ff3fe608060405234801561000f575f5ffd5b5060043610610086575f3560e01c80638e509f67116100595780638e509f6714610122578063c6f3a9aa14610152578063ca6eec7814610182578063f851a4401461019e57610086565b806320694db01461008a57806331ba1966146100a657806343b7af88146100d657806347bc709314610106575b5f5ffd5b6100a4600480360381019061009f919061069d565b6101bc565b005b6100c060048036038101906100bb919061069d565b6102db565b6040516100cd91906106e2565b60405180910390f35b6100f060048036038101906100eb919061072e565b6102f7565b6040516100fd91906106e2565b60405180910390f35b610120600480360381019061011b919061069d565b610321565b005b61013c6004803603810190610137919061072e565b61043f565b60405161014991906106e2565b60405180910390f35b61016c6004803603810190610167919061069d565b6104a1565b60405161017991906106e2565b60405180910390f35b61019c6004803603810190610197919061076c565b6104f2565b005b6101a661061b565b6040516101b391906107a6565b60405180910390f35b7f000000000000000000000000000000000000000000000000000000000000000073ffffffffffffffffffffffffffffffffffffffff163373ffffffffffffffffffffffffffffffffffffffff1614610241576040517f7bfa4b9f00000000000000000000000000000000000000000000000000000000815260040160405180910390fd5b60015f5f8373ffffffffffffffffffffffffffffffffffffffff1673ffffffffffffffffffffffffffffffffffffffff1681526020019081526020015f205f6101000a81548160ff0219169083151502179055508073ffffffffffffffffffffffffffffffffffffffff167f05e7c881d716bee8cb7ed92293133ba156704252439e5c502c277448f04e20c260405160405180910390a250565b5f602052805f5260405f205f915054906101000a900460ff1681565b6001602052815f5260405f20602052805f5260405f205f915091509054906101000a900460ff1681565b7f000000000000000000000000000000000000000000000000000000000000000073ffffffffffffffffffffffffffffffffffffffff163373ffffffffffffffffffffffffffffffffffffffff16146103a6576040517f7bfa4b9f00000000000000000000000000000000000000000000000000000000815260040160405180910390fd5b5f5f5f8373ffffffffffffffffffffffffffffffffffffffff1673ffffffffffffffffffffffffffffffffffffffff1681526020019081526020015f205f6101000a81548160ff0219169083151502179055508073ffffffffffffffffffffffffffffffffffffffff167faf66545c919a3be306ee446d8f42a9558b5b022620df880517bc9593ec0f2d5260405160405180910390a250565b5f60015f8473ffffffffffffffffffffffffffffffffffffffff1673ffffffffffffffffffffffffffffffffffffffff1681526020019081526020015f205f8381526020019081526020015f205f9054906101000a900460ff16905092915050565b5f5f5f8373ffffffffffffffffffffffffffffffffffffffff1673ffffffffffffffffffffffffffffffffffffffff1681526020019081526020015f205f9054906101000a900460ff169050919050565b5f5f3373ffffffffffffffffffffffffffffffffffffffff1673ffffffffffffffffffffffffffffffffffffffff1681526020019081526020015f205f9054906101000a900460ff16610571576040517f3557a78800000000000000000000000000000000000000000000000000000000815260040160405180910390fd5b6001805f3373ffffffffffffffffffffffffffffffffffffffff1673ffffffffffffffffffffffffffffffffffffffff1681526020019081526020015f205f8381526020019081526020015f205f6101000a81548160ff021916908315150217905550803373ffffffffffffffffffffffffffffffffffffffff167f3026993f4e06fc52b2f2f8ee2035821b9b29172ab964da353b6ba3c89133727e60405160405180910390a350565b7f000000000000000000000000000000000000000000000000000000000000000081565b5f5ffd5b5f73ffffffffffffffffffffffffffffffffffffffff82169050919050565b5f61066c82610643565b9050919050565b61067c81610662565b8114610686575f5ffd5b50565b5f8135905061069781610673565b92915050565b5f602082840312156106b2576106b161063f565b5b5f6106bf84828501610689565b91505092915050565b5f8115159050919050565b6106dc816106c8565b82525050565b5f6020820190506106f55f8301846106d3565b92915050565b5f819050919050565b61070d816106fb565b8114610717575f5ffd5b50565b5f8135905061072881610704565b92915050565b5f5f604083850312156107445761074361063f565b5b5f61075185828601610689565b92505060206107628582860161071a565b9150509250929050565b5f602082840312156107815761078061063f565b5b5f61078e8482850161071a565b91505092915050565b6107a081610662565b82525050565b5f6020820190506107b95f830184610797565b9291505056fea26469706673582212203533f062353c7b9dc65fc1a980bea232b2352acab665e5ea20a2d1e09ac7052664736f6c63430008210033","linkReferences":{}},"methodIdentifiers":{"addIssuer(address)":"20694db0","admin()":"f851a440","checkIssuer(address)":"c6f3a9aa","checkRevocation(address,bytes32)":"8e509f67","isAuthorizedIssuer(address)":"31ba1966","isRevoked(address,bytes32)":"43b7af88","removeIssuer(address)":"47bc7093","revokeCredential(bytes32)":"ca6eec78"},"id":21}